S013000074657374524130626172652E73726563F4
S3150000000088510020A1020000B90100009D020000F5
S315000000109D0200009D0200009D0200009D0200005E
S315000000200000000000000000000000009D0200002B
S315000000309D020000000000009D020000ED1100007E
S3150000004000000000000000000000000000000000AA
S31500000050000000000000000000000000000000009A
S31500000060000000000000000000000000000000008A
S31500000070000000000000000000000000000000007A
S3150000008000000000000000000D1700004D140000E5
S315000000900000000000000000000000009D190000A4
S315000000A000000000000000000000000089170000AA
S315000000B0000000000000000000000000000000003A
S315000000C0000000000000000000000000000000002A
S315000000D0000000000000000000000000000000001A
S315000000E0000000000000000040F623020F4B995C60
S315000000F00F4A890709D540F622015B5C1BB193685C
S315000001000C4A136070471369FAE740F62001595C00
S31500000110890705D540F61901595C5368CB40EFE7CE
S3150000012040F61801595C1368F8E7C04600E0014044
S31500000130604000203844002001380028FCD1704778
S3150000014070B54143114B124D1B680C00B5FBF3F51E
S31500000150080040F2E8320023002101F003FF31B924
S31500000160B0FBF5F0800808B1FFF7E6FF70BDAD0003
S31500000170B4FBF5F040F2E8320023002101F0F2FE74
S315000001800029F0D001204042EEE7C0463844002066
S3150000019000CA9A3B10B5034B8200D35803B1984767
S315000001A010BDC04664430020024B80001950002059
S315000001B07047C04664430020F8B540F2401300245F
S315000001C00127084E084A758CD35A1D402B00E34080
S315000001D03B4202D0E0B2FFF7DDFF0134092CF5D136
S315000001E07586F8BDFE600040006000401F2243098E
S315000001F010401E3A8240024960339B005A507047B5
S3150000020000E100E0F7B5FF27019283080A4A0326BA
S315000002109B009B183A0040F200350640F600890123
S31500000220B2403940B1405C59800094430C435C5164
S31500000230019A024B1A50F7BD00E100E08C43002002
S315000002401F22430910401E3A824002499B005A5021
S315000002507047C04600E100E010B50400FFF7C6FF96
S315000002602000FFF7EDFF10BD1F22430910401E3A84
S315000002708240044920339B005A50BFF34F8FBFF38F
S315000002806F8F704700E100E010B50400FFF7BAFF7A
S315000002902000FFF7E1FF10BD7047C04600BE704763
S315000002A010B501F005FE01F057F8FEE7FFFFFFFF6E
S315000002B0FFFFFFFFFFFFFFFFFFFFFFFFFFFFFFFF48
S315000002C0FFFFFFFFFFFFFFFFFFFFFFFFFFFFFFFF38
S315000002D0FFFFFFFFFFFFFFFFFFFFFFFFFFFFFFFF28
S315000002E0FFFFFFFFFFFFFFFFFFFFFFFFFFFFFFFF18
S315000002F0FFFFFFFFFFFFFFFFFFFFFFFFFFFFFFFF08
S31500000300FFFFFFFFFFFFFFFFFFFFFFFFFFFFFFFFF7
S31500000310FFFFFFFFFFFFFFFFFFFFFFFFFFFFFFFFE7
S31500000320FFFFFFFFFFFFFFFFFFFFFFFFFFFFFFFFD7
S31500000330FFFFFFFFFFFFFFFFFFFFFFFFFFFFFFFFC7
S31500000340FFFFFFFFFFFFFFFFFFFFFFFFFFFFFFFFB7
S31500000350FFFFFFFFFFFFFFFFFFFFFFFFFFFFFFFFA7
S31500000360FFFFFFFFFFFFFFFFFFFFFFFFFFFFFFFF97
S31500000370FFFFFFFFFFFFFFFFFFFFFFFFFFFFFFFF87
S31500000380FFFFFFFFFFFFFFFFFFFFFFFFFFFFFFFF77
S31500000390FFFFFFFFFFFFFFFFFFFFFFFFFFFFFFFF67
S315000003A0FFFFFFFFFFFFFFFFFFFFFFFFFFFFFFFF57
S315000003B0FFFFFFFFFFFFFFFFFFFFFFFFFFFFFFFF47
S315000003C0FFFFFFFFFFFFFFFFFFFFFFFFFFFFFFFF37
S315000003D0FFFFFFFFFFFFFFFFFFFFFFFFFFFFFFFF27
S315000003E0FFFFFFFFFFFFFFFFFFFFFFFFFFFFFFFF17
S315000003F0FFFFFFFFFFFFFFFFFFFFFFFFFFFFFFFF07
S31500000400FFFFFFFFF7AFC1FF44F2600044F2600355
S31500000410C2F20000C2F2000310B5834205D040F2DA
S315000004200003C0F2000303B1984710BD44F2600018
S3150000043044F26003C2F20000C2F200031B1A9A10D3
S31500000440D90F8918491010B529B140F20003C0F23E
S31500000450000303B1984710BD10B544F27804C2F208
S315000004600004237873B9FFF7CFFF40F20003C0F210
S3150000047000032BB142F65C50C0F2000000E000BF62
S315000004800123237010BDC04640F20003C0F20003F2
S3150000049010B54BB144F27C0142F65C50C2F2000149
S315000004A0C0F2000000E000BFFFF7C0FF10BDC0466D
S315000004B00023124A70B51380114A12491380012293
S315000004C00A701149114D0A70012149422980104DC7
S315000004D0104C2980104920600A70104A1370104A87
S315000004E01360036A984723681A8802805B6A9847F4
S315000004F023685A8802805B68984770BDA640002032
S31500000500A44000209E4000209F400020A0400020E4
S31500000510A2400020944000209D4000209C400020E6
S3150000052098400020F0B51C00150087B00CAB1B8866
S315000005300E000393631ADA179B18534000932B1A85
S31500000540DA179B1853400193019A009B934204DCEF
S31500000550230006002C0008001D00A64205DC2B0027
S3150000056005001800230034001E00331B9AB21BB28C
S31500000570DF0FFF1801230492421BD11752184A407D
S3150000058005927F100293854201DB023B0293B4423F
S3150000059001DD07B0F0BD0F4B009A1B6801999B68FF
S315000005A08A4212DD21002800039A9847059BFB1A10
S315000005B09AB21FB21B0405D5029BED18049B2DB2FF
S315000005C09A1817B2013424B2E1E729002000039AF1
S315000005D0EBE7C0469440002010B5024C2468E4685E
S315000005E0A04710BD9440002010B5024C2468246931
S315000005F0A04710BD94400020F7B505001600040082
S31500000600019308AB1F880091AB199C4200DBF7BD34
S3150000061020003B00019A00990134FFF7DDFF24B268
S31500000620F2E737B51C0006AB15001B8890420BD1CC
S31500000630A14202DC22000C00110001310A1B12B299
S315000006402100FFF7C9FF37BDA1420AD1904201DC64
S31500000650050010000130441B22B22800FFF7C4FF3A
S31500000660F1E700932300FFF75DFFECE7F0B593B0E9
S31500000670049318AB1B881400059319AB1D781AABAD
S315000006801B7807900293994B03911A68002A00D0B1
S31500000690B4E0974E33681B6A98470023C75E3368F9
S315000006A05B6A98470022835E079ABA4268DA039A21
S315000006B09A4265DA06236B43079A9B18002B5FDD87
S315000006C0029B039ADB009B18002B59DD894B1B7894
S315000006D01BB9AF2C01D90134E4B205235C430A935C
S315000006E000230D940693844A0D9B00279B18069AB7
S315000006F09B5C09936B461B8B08936B469C8B089BF4
S315000007006B43E3181BB20C9308230B930122099B3E
S31500000710134247D06B46B8B29989954232D1029BB3
S3150000072093422FD1089B411818193368049A9B6885
S3150000073009B200B29847099B01375B0809930B9BE6
S315000007407FB2013BDBB20B93002BDFD1069B01335B
S315000007505BB206930A9B013BDBB20A93002BC2D124
S31500000760049B059A93420BD0012D3AD1029B012B93
S3150000077037D1053413000399082220B2FFF72CFF66
S3150000078013B0F0BD6B4608229A5E029B0E92584348
S31500000790049B09182AB209B200930C980E9BFFF726
S315000007A02BFFC8E7049B059A9342C4D06B46B8B2A8
S315000007B09989012D0AD1029B012B07D1089B41186B
S315000007C01819336809B29B6800B2B3E76B46082272
S315000007D09A5E029B0E9258430918059B2AB209B2EB
S315000007E0DAE705216943029B60180599DB00009151
S315000007F02AB2039900B2FFF7FFFEC1E713895168D9
S31500000800E41A1268E4B2E4000F920A5B0B1906922E
S315000008109A780B92DA78109205229A560C929B7966
S315000008205BB20D93002308930A93029B2B43012B83
S3150000083002D90D9B0A920893002637000596109B55
S315000008409F429DD26B469B89029A0993089B00247E
S31500000850FB185343099AD3181BB20E9333002EE0AC
S315000008605A1CD2B211920722134207D1069B06994F
S315000008700F9A0133525C9BB2059206936B461B7D21
S315000008805BB2002B14DA6B46988B012D1FD1029BAD
S31500000890012B1CD1099B0D9A99180C9B7918C0182D
S315000008A0134B20181B68049A9B6809B200B298473C
S315000008B0059B01345B00DBB20593119BE4B20B9AF6
S315000008C09442CDD3B6180137F6B2FFB2B7E76B46FE
S315000008D00A9908229B5E09196943401804992AB2AD
S315000008E0009100B20E99FFF787FEE1E798400020DD
S315000008F0944000209C40002098220000F0B5534B05
S3150000090087B01B6804001B6A98470022835E049325
S315000009104F4B1B68002B3ED10A2C0BD14D4A13803E
S315000009204D4B4E4A1B781188DB005B181380012063
S3150000093007B0F0BD0D2CFAD0474A494E12783778E9
S315000009409446484A434D1178444A71B10020295EC5
S315000009500620784309180498814206DD2B806346F9
S315000009600020115EDB005B1813800021515E00221F
S31500000970A85E62463C4B1B8802923C4A019712884D
S3150000098000922200FFF772FE0622337853432A882C
S315000009909B182B80CBE70A2C0BD100212D4A118006
S315000009A02D4A1B7B12782D4953430A889B180B80CE
S315000009B0BDE70D2CBBD01A7A9442B8D3997AA142DE
S315000009C0B5D35D68A21AD200AD18AA78214E944616
S315000009D0A2B3EA7892B3224A17781F4A1078214ABE
S315000009E01278C2B10522AA5662447A4305920022C1
S315000009F0B15E059A8C46049962448A420BDD40F248
S31500000A00000C164A0021525E614631801B7B43432F
S31500000A109B18124A1380144B1B8804930F4B002219
S31500000A20995E0023F25E02909446104A019712885E
S31500000A3060460092049B2200FFF718FE084A2B79B5
S31500000A401278534332889B18338070E79440002015
S31500000A5098400020A64000209E400020A440002090
S31500000A609F4000209D400020A2400020A040002082
S31500000A7010B51400064B1880064B1980002020562E
S31500000A8000B910BDC0B2FFF739FF0134F6E7C04622
S31500000A90A6400020A4400020031C00B90123044AFC
S31500000AA013700B1C01B90123024A13707047C0462C
S31500000AB09F4000209E400020024B1880024B198068
S31500000AC07047C046A2400020A040002070B50F4CE1
S31500000AD005002368DB699847236805701B6A9847F9
S31500000AE0236806005B6A98470300032D09D828008F
S31500000AF0226801F02DFA0207020711883180528818
S31500000B001A8070BD518831801288F9E79440002020
S31500000B10074A136830B11BB906490B8806330B80A8
S31500000B2010607047002BFBD002490B88063BF6E7A6
S31500000B3098400020A440002000487047B2400020A2
S31500000B4000487047B040002000487047AE40002083
S31500000B50030010B50B431AD4284B00241B5F8342B5
S31500000B6015DD274B00241B5F8B4210DD254B1B78C0
S31500000B70022B0DD0032B12D0012B03D17E335B1A2F
S31500000B80010018B2012A0FD0022A29D0D2B110BD15
S31500000B907F23181A603B591A00B209B2F2E71F23E5
S31500000BA01B1A080019B2EDE70724CB1723405B1880
S31500000BB0DB10A3400C40A2401B181348C15C0A433B
S31500000BC0C254E4E70722CB1713405B18DB109340AF
S31500000BD00A40012191401B180B48C25C8A43EFE78B
S31500000BE00722CB1713405B18DB1093401140063ADF
S31500000BF08A401B180448C15C4A40E1E7B040002027
S31500000C00AE400020B2400020B440002010B50028BD
S31500000C1002DA1218002012B21418802C02DD80228B
S31500000C20121A12B2002A0EDDCC10E4012018164C5E
S31500000C30001907242140063C8C40E1B2012B0DD05F
S31500000C40022B01D0A3B110BD121892B203784B400B
S31500000C500370013083B29A42F8D1F4E7121892B2C7
S31500000C6003780B430370013083B29A42F8D1EAE766
S31500000C70C9431218C9B292B203780B40037001300F
S31500000C8083B29342F8D1DEE7B4400020F0B50029E4
S31500000C9002DA5218002112B28C18202C02DD202212
S31500000CA0521A12B2002A3FDDC9B207270D00CC083E
S31500000CB0E4012018304CD6B204193D40394212D016
S31500000CC008214D1B2D49EDB2495DAE4203D2AA1A49
S31500000CD0F83717413940012B27D0022B2ED04BB3C2
S31500000CE0AE4221D38034721BD2B2072A14D9022B0A
S31500000CF029D12000110005780839ED43C9B20570E5
S31500000D0080300729F7D811000839C9B2C90801315E
S31500000D10C901641807210A4032B119498A5C012BBE
S31500000D201FD0022B25D003B3F0BD134F3A5C0A4304
S31500000D303A54D5E7104F3A5C8A43F9E70E4A175CF6
S31500000D4079401154CCE71800411E88412500110056
S31500000D504042C0B20839C9B2287080350729F9D88F
S31500000D60D1E723781A432270DEE723789343237072
S31500000D70DAE723785A40F6E7B4400020A0270000BF
S31500000D809827000070B50C00134985B2097802292E
S31500000D900FD003291BD0012912D17F31891A0C1BD0
S31500000DA024B281B21F2903D801002000FFF72EFFCD
S31500000DB070BD20217F20891A401B0C1B00B224B273
S31500000DC081B27F29F4D82100FFF760FFF0E71F20EA
S31500000DD0401B00B2E5E7C046B240002070B51524BE
S31500000DE041F64075064B1A7812B1013CA4B214B90B
S31500000DF001221A7070BD01212800FFF7A1F9F1E761
S31500000E00B340002070B50C001349A5B20978022939
S31500000E100ED003291AD0012911D17F24641B24B2D4
S31500000E20A1B27F2903D801002000FFF72FFF70BD74
S31500000E3080211F24891A641B081A24B200B2A1B2A9
S31500000E401F29F4D82100FFF7E1FEF0E72021891AD7
S31500000E50081A00B2E4E7C046B24000200022014B67
S31500000E601A707047B340002070B50500FFF7B6FF53
S31500000E708023074C0121022023706570FFF760F97B
S31500000E80002302222100034800F040FD70BDC04649
S31500000E90AC400020FC42002010B518B1A720FFF797
S31500000EA0E3FF10BDA620FAE7F7B5104F01900D003D
S31500000EB0FFF794FF386808B101F096F86E1C300011
S31500000EC001F088F8402304003860012D00D18033FA
S31500000ED02A0001992370601C01F072F83200002389
S31500000EE02100034800F012FDF7BDC046A8400020CF
S31500000EF0FC42002013B506226846084901F060F856
S31500000F0000246B46185D0134FFF7AEFF062CF8D1BE
S31500000F1040F200210248FFF7C7FF13BDD0270000AB
S31500000F20B440002010B540F200220021014801F033
S31500000F302DF910BDB440002030B50F4989B001AD80
S31500000F401A220631280001F03BF80C490C4800F043
S31500000F5049FC01223C210A4800F040FC0024285D9F
S31500000F600134FFF781FF1A2CF9D1FFF7DBFFFFF7FA
S31500000F70C1FF09B030BDC046D0270000402C00009C
S31500000F80FC42002010B50249024800F043FE10BDA5
S31500000F901C2C0000E842002037B50A4DC3B20400FD
S31500000FA06B70094800F00CFE2B78DB09002BFBD197
S31500000FB06B469D1D2A002100034800F0D9FD2888B4
S31500000FC03EBDC04600180A40E84200207FB500F04A
S31500000FD015F90E23344C6B441870012250213C2025
S31500000FE000F04CF92000FFF763FA00F0EFF8042157
S31500000FF02E4800F0A1F80125FFF7C4FF00211F23AA
S315000010007F2208000095FFF70CFB2948FFF780FDBB
S3150000101000212800FFF750FD0020FFF757FD254A65
S315000010200A210220FFF724FD03210800FFF734FD03
S315000010301E211420204AFFF71BFD2B00142200213D
S315000010404020FFF7C9FA2B0078220F210020FFF776
S31500001050CBFAA369984740F2E835FA262900300012
S31500001060FFF76EF863690120984730002900FFF703
S3150000107067F800206369984700F07CF848B9FFF7E5
S315000010808BFF0E4B18800120FFF786FF0C4B188054
S31500001090E4E700F077F80F236B441870012118007D
S315000010A000F04AF8E8E7C046A8270000F02700004D
S315000010B004280000F5270000FB270000B6420020A8
S315000010C0B442002010B518B90122054B1A7010BDA4
S315000010D00228FCD10349044800F040FDF7E7C0466A
S315000010E090C07E40C02C0000E04200200379022B15
S315000010F005D101210D4A13788B4313707047042BD9
S31500001100FCD10B4A81681378D8B20133DBB2137075
S31500001110CBB208490B541378092B01D9002313705D
S315000011200223024A11780B43E7E7C046CE4200206D
S31500001130CC420020B842002070B50C000A4D2B7836
S31500001140DB07FCD4092C0DD801002200074800F06B
S3150000115037FF01232A7805491343054822002B70DF
S3150000116000F0B2FA70BDC046CE420020C242002056
S3150000117038430020024B18788007C00F7047C046DE
S31500001180CE4200200D4A0E4B11781B7899420DD0A5
S315000011901378D9B20133DBB213700A4B585C13785B
S315000011A0C0B2092B01D90023137070470221064AE9
S315000011B0002013788B431370F7E7C046CD4200201A
S315000011C0CC420020B8420020CE42002010B504498F
S315000011D0044800F079F90022034B1A7010BDC0468E
S315000011E0982C000038430020CE420020024A1368A3
S315000011F0013313607047C046D042002013B56B46DA
S31500001200DC1D220040F20D21034800F069FC207825
S31500001210431E9841C0B216BDE0420020431E622B19
S3150000122010D8094B1A78094BB3FBF2F3084A173B5F
S31500001230107064225843B0FBF2F0064A1B1A106085
S31500001240054A13607047C046D742002020A1070018
S31500001250D6420020D8420020DC4200200300323B68
S3150000126010B50F2B05D8034B1870034B1878FFF7F2
S31500001270D5FF10BDD7420020D642002010B514007D
S31500001280094B1970FFF7EAFF084B09491C70094C16
S31500001290200000F091F840F2E831200000F086F8D6
S315000012A0200000F067F810BDD6420020D54200208D
S315000012B06C2C00002443002070B5214B214D1B7877
S315000012C053B92B70204B00221C6808211F48640864
S315000012D000F014FC00222DE028780024052814D8FC
S315000012E000F02CFEF0030B10252A0122184B1C6877
S315000012F00821164800F002FC07E0134B00221C6888
S315000013006408F5E7104B1C686408124800F02AF8D8
S315000013102100104800F04AF80E4800F02BF82B7810
S315000013200133DBB2052B00D900232B7070BD0122DF
S31500001330074B1C680921DCE7034B1C686408C9E7F6
S31500001340D5420020D4420020DC420020E0420020AA
S31500001350D84200202443002010B5FFF737FE0020B6
S3150000136010BDFFFF4289024B0020DA867047C04657
S31500001370FE260A404289024B00209A867047C046E4
S31500001380FE260A4010B5C2694B1E5478032C04D1C0
S315000013909279022A01D04B08013B027C0249520095
S315000013A052189BB2138010BD00260A4010B5406843
S315000013B0FFF7E8FF002010BD70B50C000B7C012183
S315000013C00E009E40B6B20681446063690500C360A4
S315000013D0A3690361EFF3108081F31088174BDA6875
S315000013E08A43DA60DB6880F31088E1690A78CB7992
S315000013F0D207D20F9B0313438A78501E8241D20232
S3150000140013434A780E495200525A502113430D4A4B
S315000014109BB21187227C0C4988325200535220001D
S315000014206168FFF7AFFF12206E812056002803DBAC
S315000014302A00617CFEF728FF002070BDFC6F044087
S315000014404C2D0000FE260A4000260A4030B585B025
S31500001450EFF30383103B134A5BB29B009A58506824
S31500001460C3695978002304391C00022905D8037C76
S315000014700D495B005B5A02349BB2D16881B1156994
S3150000148001A804710195022C08D15268064C127C01
S3150000149090325200125B120401329B188360884717
S315000014A005B030BD8C43002000260A401FB5436AB4
S315000014B04BB184682478029169460A71826A009465
S315000014C06846039298471FBDF8B50B780D005B0878
S315000014D003740A78022152000A404274764A8560F3
S315000014E09B185B02C3606B6904004362AB6983624D
S315000014F06B78013B5A4253410370EFF31086013972
S3150000150081F310880F00007C6C4B063087405A68C8
S31500001510BA435A605B6886F31088E368EA69FE336B
S3150000152019855068637C0778232088338B40FF0336
S31500001530E668384380B29853EF786B787F183F019E
S315000015403B43AF78607C3F023B4357788C30FF01CA
S315000015503B4348F204078840E6683B438353607C7C
S315000015600F0088405368E6685B785B029BB2835342
S31500001570667CE068B740FE30838DBB438385E068B8
S3150000158097789C46667CFE308F4200D086E03B0012
S31500001590B340C18E194389B2C186667CE168B74003
S315000015A0FE31488DB843488501210B00667CE06812
S315000015B0B3401E00634633439BB2FE3083852E78CC
S315000015C03F488E40B14003780B43DBB203700720DF
S315000015D0637CE16885335B0058525168637C0E7802
S315000015E09178F60389010E4340F22211E0683143F7
S315000015F0893389B25B001952AB7AAE78FF3B594208
S315000016004B4144F204415B429B0A6F789B025B1894
S3150000161036023B4333435678617CF601334310264A
S31500001620E06833438D319BB249000B525268637CAC
S315000016305278E1680133520292B25B005A5200239B
S3150000164005206361A361E36123622979220028569C
S31500001650FEF71AFEA368DB7A5BB2213305D00B20B6
S315000016602200A97A2856FEF70FFE01263100627C79
S31500001670072001329140E3688AB2FE339A842856E5
S315000016802200A979FEF700FE637CE2689E40FE32E6
S31500001690B3B293840B4B00206360F8BD0B00B340DC
S315000016A0C78E9F43C786677CE068B940FE30468D8B
S315000016B0314389B2418577E710052000FC6F04406D
S315000016C000100A405555415370B50378447CDA4002
S315000016D0C36864001B190124FE335D8A013A2C435A
S315000016E05C8204788261631CCB184361C268437CC8
S315000016F04CB109885B00D152836807201856FEF763
S315000017009FFD002070BD0978F4E7FFFF70B5EFF389
S315000017100383103B1B4A5BB29B009C58627CE368C8
S3150000172052009B181A00FE32558AA169ADB2D1B19A
S31500001730A168C968B9B92178626991B112881A801D
S315000017402278636901329B186361A369013BA36137
S315000017500BB901339D43637CE26888335B009D527D
S3150000176070BD1278EBE70023636101331D42F1D1AE
S31500001770538899B2002BEED102222000FFF796FE85
S31500001780E9E7C0468C43002010B5EFF30383103B16
S31500001790114A5BB29B009858437CC26801335B00D8
S315000017A0995A036A89B223B90422C361FFF77EFE00
S315000017B010BD0278C3695AB11980C3690233016A40
S315000017C0C361013901620029F2D10122C161EDE74D
S315000017D01970C3690133F2E78C430020417700207A
S315000017E07047FFFFF8B50B004D6A2449EA7803609D
S315000017F05218520282609A6804004277DA690262DD
S315000018001A6A4262EFF31086012181F310880F00F5
S31500001810ED781B4A0635AF405068B84350605268B1
S3150000182086F31088A2685E6A1000FE300185216882
S3150000183077780D782421FF0339436F00D2191700FA
S3150000184089B2FE3779820F4979833178490289B2A4
S31500001850118040F20111A940428D0A4392B242859D
S315000018601020597B18562200FEF70EFD0020236932
S31500001870E0766361044BA0766360F8BD1005200036
S31500001880FC6F04401780FFFF43324953F7B501262A
S31500001890836840F2001200930368C17E1F78009CA3
S315000018A0BE40BA40B6B2F34392B205009BB2019273
S315000018B0FE3449B1E684A28D01991A40A285628D53
S315000018C00A4362850022C276628D01211340638538
S315000018D02B687F005B6A9878FEF732FC638D019A6D
S315000018E0002093436385A38D3343A385A38C3343A1
S315000018F0A3846A7F6B7E52001A43009BD2B2FB5AC6
S315000019005B0A5B021343009ABB52FEBD10B500246E
S31500001910837603684476C1604461047702611A786D
S31500001920836852009B18072248F20001FE335A8151
S315000019305A8B9204920C0A435A83FFF7A7FF2000A2
S3150000194010BD10B50400036801215B6A9878FEF7A4
S31500001950F7FB2168A268087801218140FE32538D89
S3150000196000200B439BB2538510BD10B502688368F7
S3150000197014780122A240FE3392B2DA84998D914303
S315000019809985598D9143598540F20011A1405A8D90
S315000019900A4392B25A85FFF7D4FF10BDF0B585B061
S315000019A0EFF30383103B364A5BB29B009C5802213F
S315000019B02368A2681F7878001318FE335D882E000E
S315000019C00E4001960D4216D001252E005A8905318A
S315000019D08A435A8123696361A37E002B4BD0002E74
S315000019E049D10123E376636A02A8029302AB1D7113
S315000019F0236A984714E0617EE5688C46CEB2616939
S31500001A006D18009565466DB9236999422ED2009BE3
S31500001A1001311D786161135A5B0A5B022B43135235
S31500001A2005B0F0BD217FD1B144F2000501992177BF
S31500001A30598B8904890C29435983636921690133C8
S31500001A408B4206D101211500B940FE35AB8D8B4383
S31500001A50AB856169236999420AD0FF25DBE7835A82
S31500001A6000990B70636901336361E6E70325B3E709
S31500001A7002250026B0E72000FFF777FFB3E7C04650
S31500001A808C430020EFF31080012383F31088064B6C
S31500001A90196819B9054A1170403111701A68013276
S31500001AA01A6080F3108870478843002040030A407C
S31500001AB0EFF31081012383F31088074B1A6812B1E4
S31500001AC01A68013A1A601A681AB9044B1A708032F9
S31500001AD01A7081F3108870478843002040030A403B
S31500001AE00B0A1B01C9B25B1803495B005B5A002055
S31500001AF09B07DB0F1370704700020A400123C8B230
S31500001B00834000209BB20AB918001300034A090A51
S31500001B1049018918088100204B81704700000A405E
S31500001B2070B50400FFF7AEFF0022FF200A4D2388A0
S31500001B30934202D8FFF7BCFF70BD6168D300C91895
S31500001B408E880968330A1B0106409B1989B25B001F
S31500001B500132595392B2EAE700020A4010B5034B2C
S31500001B6003600800FFF7DCFF002010BD54524F5001
S31500001B7070B500680F4C436965781E78EDB2002396
S31500001B80012E0BD11F332B40C91A0B4B194004D51C
S31500001B90042301395B4219430131CBB2903359001A
S31500001BA0635AC1780548415C00200B411B051B0D9B
S31500001BB0138070BD00180A40030000800340002017
S31500001BC010B50368104C5B691A79012A03D1D978DC
S31500001BD07F32FF2912D0012122780C480A43227055
S31500001BE09A7805239B1A0A4ADBB21268DA40B0FBE0
S31500001BF0F2F088404018FEF7A3FA812223780020ED
S31500001C001343237010BDC04600180A4040420F001F
S31500001C1038440020F7B50160CB6843600B698360E8
S31500001C204E69244837787378BF015B001F43B37849
S31500001C303479DB001F437379A4015B011C431E4BFF
S31500001C40FFB21A68002390425B41DB001C43F37825
S31500001C50E4B2FF2B02D0234380241C43B579F379E9
S31500001C60ED005B011D43CB781D436DB2EFF310838E
S31500001C700120019380F31088104AD3681900104B95
S31500001C801940D160D368019B83F310880100FEF7E9
S31500001C9057FA717A0B4A0C4B9174B17A0020D174C1
S31500001CA03F211F709C70337A0D409B011D43EDB29E
S31500001CB05574FEBD00093D0038440020FC6F044009
S31500001CC0FFFFFEFFFF180A4000180A4040F20A22F2
S31500001CD030B50F4B995C8909814218D040F20B242C
S31500001CE001211D5D29431955022805D0995C8909F2
S31500001CF0022901D08021995440F20A2240F20B2198
S31500001D008001C0B2985401205A5C82435A5430BDB7
S31500001D1000C07E40F8B540F623050127214C665DDC
S31500001D20BE436655665DB607F70FBC46002EF9DB67
S31500001D300127B84224D840F62105665DBE436655A4
S31500001D40665DB607FCD4012640F6200588B9605DBD
S31500001D50B0436055605D8007FCD440F618002154FE
S31500001D6040F61901625440F61A02A354FEF7BCF974
S31500001D70F8BD615D0E436655615D8907FCD5EFE7E9
S31500001D8040F6220102280AD167540121605D014311
S31500001D9040F623006155215C8907FCD5E0E76046E3
S31500001DA06054F2E700E001407047FFFF40F6FE0393
S31500001DB070B5264A264C0025E252264B264ADD609F
S31500001DC01A60264A5A6048F200029A601A61FEF7C3
S31500001DD08BF940F600031A2240F62401E254635CB4
S31500001DE08BB11F4B1F48DA680240DA60DA687F263B
S31500001DF01D48C27A3240C2728022D8681204024359
S31500001E00DA60DB68655440F60C03E25CC2B100227E
S31500001E10E2540320FFF75AFF002240F60803E2547B
S31500001E2040F61202A35CDB07FCD500231A0019005A
S31500001E301800FFF76FFF40F6FE030C4AE25270BD32
S31500001E4040F2E830FFF7B0FFE3E7C04603A5FFFF27
S31500001E5000E00140604000200048E80100093D0024
S31500001E60FC6F0440FFFF7FFF002C0A4000A5FFFF28
S31500001E707047704710B50B4A0300116809B90A4943
S31500001E8011600321106803338B430849C3188B4242
S31500001E9006D900F075F90C2303600120404210BDFD
S31500001EA01360FCE73444002088450020884D00205C
S31500001EB070B50025184B194A00209A60FFF702F901
S31500001EC0FFF774FF0120FFF7FDF81548154A0021BA
S31500001ED0121A00F05BF91448144A1549121A00F058
S31500001EE06FF8144C144BE41AA410A5420CDBFEF751
S31500001EF0FBF8FFF7BDFF0220FFF7E4F8FEF7CCF989
S31500001F000020FFF7B6FF70BD0B4AAB009B181B689D
S31500001F1098470135E9E7C04600ED00E00000000003
S31500001F2078400020844500200040002060400020CA
S31500001F30602D00005C4000205840002002B471462D
S31500001F4049084900095649008E4402BC7047C046FC
S31500001F5002B4714649084900095C49008E4402BC36
S31500001F607047C046F0B54FF6FF750400CE462C40CC
S31500001F70474615400E002900994680B5130C070008
S31500001F80000C61434543584363430C0C5B19E4184A
S31500001F908C46A54203D980235B0298464044230C15
S31500001FA061461B184FF6FF70084049465643794371
S31500001FB0240489192018C918C0BCB946B046F0BD1A
S31500001FC0002310B59A4200D110BDCC5CC454013335
S31500001FD0F8E7FFFF10B5034B0100186800F030F872
S31500001FE010BDC0460840002010B5034B010018681C
S31500001FF000F0D4F810BDC0460840002070B50F4E62
S315000020000D003168040011B900F0AAF8306029000B
S31500002010200000F0A5F8431C03D101256D422800DD
S3150000202070BD0323C51C9D43A842F8D0291A200081
S3150000203000F096F80130F2D1EFE7C0463C440020AC
S31500002040F7B50322CB1C9343083305001F000C2B66
S3150000205034D20C27B94233D8384E280000F070F835
S3150000206033681C00002C2FD139002800FFF7C6FF6B
S315000020700400431C5FD134680094009B002B4AD1B6
S31500002080002C52D023682800E3180099019300F031
S3150000209067F8019B834248D123682800FF1A39005C
S315000020A0FFF7ACFF013040D02368DB1923603368AB
S315000020B05A68002A33D1009B336019E0002BC9DA35
S315000020C00C232B600020FEBD2168C91B20D40B29E0
S315000020D00AD9E2192760A34204D13260636811600D
S315000020E0536005E05A60F9E76268A3420ED1326098
S315000020F0280000F02DF8200007220B30231D904306
S31500002100C21A9842DFD01B1AA350DCE75A60EFE7E9
S3150000211023006468A6E7009C63680093ADE71A0095
S315000021205B68A342FBD10023DAE70C2328002B606F
S3150000213000F00EF8C6E70760DAE7C0464044002024
S3150000214010B5024800F072F810BDC0467C4500206C
S3150000215010B5024800F06BF810BDC0467C45002063
S31500002160002370B5054D040008002B60FFF782FEC2
S31500002170431C02D12B6803B1236070BD804500204B
S31500002180014B18687047C0460840002003008218BB
S31500002190934200D1704719700133F9E770B5050015
S315000021A00C0079B1043C2368002B00DAE4182800FF
S315000021B0FFF7C6FF1C4A13682BB96360146028003A
S315000021C0FFF7C6FF70BDA34208D9206821188B42CD
S315000021D0F3D119685B6809182160EEE71A005B689D
S315000021E00BB1A342FAD911685018A0420BD120684E
S315000021F00918501811608342E1D118685B684118CC
S3150000220011605360DBE7A04202D90C232B60D6E7AE
S31500002210206821188B4203D119685B680918216070
S3150000222063605460CBE7C046404400207047704767
S315000022304275696C7420776974682052656E65739F
S31500002240617320416476616E63656420466C6578CF
S3150000225069626C6520536F667477617265205061A0
S31500002260636B6167652076657273696F6E20352EC4
S31500002270342E3000352E342E3000000000000405C8
S31500002280F8B5C046F8BC08BC9E467047F8B5C046CF
S31500002290F8BC08BC9E46704700000000003E5B4F3D
S315000022A05B3E3E6B4F6B3E1C3E7C3E1C183C7E3CB0
S315000022B0181C577D571C1C5E7F5E1C00183C1800BE
S315000022C0FFE7C3E7FF0018241800FFE7DBE7FF304E
S315000022D0483A060E2629792926407F050507407FBC
S315000022E005253F5A3CE73C5A7F3E1C1C08081C1C2F
S315000022F03E7F14227F22145F5F005F5F06097F0125
S315000023007F006689956A606060606094A2FFA2940F
S3150000231008047E040810207E201008082A1C0808DD
S315000023201C2A08081E101010100C1E0C1E0C30382B
S315000023303E3830060E3E0E06000000000000005F2C
S3150000234000000007000700147F147F14242A7F2A48
S31500002350122313086462364956205000080703000A
S31500002360001C2241000041221C002A1C7F1C2A0856
S31500002370083E0808008070300008080808080000B9
S3150000238060600020100804023E5149453E00427F2D
S31500002390400072494949462141494D331814127F7C
S315000023A01027454545393C4A49493141211109071C
S315000023B03649494936464949291E0000140000009D
S315000023C0403400000008142241141414141400416F
S315000023D022140802015909063E415D594E7C12112C
S315000023E0127C7F494949363E414141227F41414164
S315000023F03E7F494949417F090909013E41415173DF
S315000024007F0808087F00417F41002040413F017F4F
S31500002410081422417F404040407F021C027F7F0417
S3150000242008107F3E4141413E7F090909063E415160
S31500002430215E7F09192946264949493203017F0150
S31500002440033F4040403F1F2040201F3F4038403F51
S31500002450631408146303047804036159494D430067
S315000024607F4141410204081020004141417F04029E
S315000024700102044040404040000307080020545435
S3150000248078407F2844443838444444283844442813
S315000024907F385454541800087E090218A4A49C7866
S315000024A07F0804047800447D40002040403D007FC2
S315000024B01028440000417F40007C047804787C08A2
S315000024C00404783844444438FC1824241818242476
S315000024D018FC7C08040408485454542404043F445B
S315000024E0243C4040207C1C2040201C3C4030403C8A
S315000024F044281028444C9090907C4464544C4400EA
S31500002500083641000000770000004136080002014D
S315000025100204023C2623263C1EA1A161123A404039
S31500002520207A3854545559215555794122545478B6
S3150000253042215554784020545579400C1E5272124F
S3150000254039555555593954545459395554545800D8
S3150000255000457C410002457D420001457C407D12DC
S3150000256011127DF0282528F07C545545002054543E
S315000025707C547C0A097F4932494949323A444444E9
S315000025803A324A4848303A4141217A3A4240207824
S31500002590009DA0A07D3D4242423D3D4040403D3C25
S315000025A024FF2424487E4943662B2FFC2F2BFF094A
S315000025B029F620C0887E090320545479410000443E
S315000025C07D413048484A32384040227A007A0A0A29
S315000025D0727D0D19317D2629292F2826292929269C
S315000025E030484D4020380808080808080808382FE1
S315000025F010C8ACBA2F102834FA00007B000008146B
S315000026002A142222142A14085500550055AA55AA40
S3150000261055AAFF55FF55FF000000FF00101010FFE0
S3150000262000141414FF001010FF00FF1010F010F03B
S31500002630141414FC001414F700FF0000FF00FF142C
S3150000264014F404FC141417101F10101F101F141478
S31500002650141F00101010F0000000001F10101010C2
S315000026601F10101010F010000000FF1010101010B6
S3150000267010101010FF10000000FF140000FF00FFF4
S3150000268000001F10170000FC04F414141710171490
S3150000269014F404F40000FF00F714141414141414B2
S315000026A0F700F7141414171410101F101F14141425
S315000026B0F4141010F010F000001F101F0000001F8F
S315000026C014000000FC140000F010F01010FF10FFC2
S315000026D0141414FF141010101F00000000F010FF57
S315000026E0FFFFFFFFF0F0F0F0F0FFFFFF000000003B
S315000026F000FFFF0F0F0F0F0F3844443844FC4A4ABF
S315000027004A347E02020606027E027E026355494173
S31500002710633844443C04407E201E2006027E0202AA
S3150000272099A5E7A5991C2A492A1C4C7201724C30BE
S315000027304A4D4D303048784830BC625A463D3E4995
S315000027404949007E0101017E2A2A2A2A2A44445F39
S31500002750444440514A444040444A51400000FF012D
S3150000276003E080FF000008086B6B0836123624363B
S31500002770060F090F060000181800000010100030A0
S3150000278040FF0101001F01011E00191D1712003C28
S315000027903C3C3C0000000000000103070F1F3F7F88
S315000027A00080C0E0F0F8FCFE80002000390F000039
S315000027B0510B0000850D0000050E0000990E00006B
S315000027C0F50E0000390B0000410B0000490B00001C
S315000027D02200FF21007FAED580A81FD300408D14B4
S315000027E02000A1C8DA02818FD9C2DB40A4A62EAF91
S315000027F0546573740048656C6C6F00576F726C6437
S3150000280000FFFFFF0C2B00001428000020007E00B4
S31500002810070000000000000006000100000001059E
S315000028200200FC00010003010400FC000200050593
S315000028300600FC00060005050600FC000A0005056A
S315000028400600FC000E0005050600FC001200010152
S315000028500200FC00130002050300FC00150002053F
S315000028600300FC00170003030400FD001900030326
S315000028700400FD001B000102020000001C00040110
S315000028800500FE001D000101020000001E000505F6
S315000028900600FC00220005050600FC0026000105D6
S315000028A00200FC00270005050600FC002B000505BC
S315000028B00600FC002F0005050600FC003300050598
S315000028C00600FC00370005050600FC003B00050578
S315000028D00600FC003F0005050600FC004300050558
S315000028E00600FC00470001040200FD004800010448
S315000028F00200FD00490003050400FC004B00040330
S315000029000500FD004D0003050400FC004F00050511
S315000029100600FC00530005050600FC0057000505EF
S315000029200600FC005B0005050600FC005F000505CF
S315000029300600FC00630005050600FC0067000505AF
S315000029400600FC006B0005050600FC006F0005058F
S315000029500600FC00730005050600FC00770005056F
S315000029600600FC007B0005050600FC007F0005054F
S315000029700600FC00830005050600FC00870005052F
S315000029800600FC008B0005050600FC008F0005050F
S315000029900600FC00930005050600FC0097000505EF
S315000029A00600FC009B0005050600FC009F000505CF
S315000029B00600FC00A30005050600FC00A7000505AF
S315000029C00600FC00AB0005050600FC00AF0005058F
S315000029D00600FC00B30005050600FC00B70005056F
S315000029E00600FC00BB0005050600FC00BF00020552
S315000029F00300FC00C10005050600FC00C500020539
S31500002A000300FC00C70003020400FC00C800050127
S31500002A1006000100C90001010200FC00CA0004040E
S31500002A200500FD00CC0004050500FC00CF000404F1
S31500002A300500FD00D10004050500FC00D4000404D7
S31500002A400500FD00D60003050400FC00D8000405BF
S31500002A500500FD00DB0004050500FC00DE000104A6
S31500002A600200FD00DF0002050300FD00E100040591
S31500002A700500FC00E40001050200FC00E500050479
S31500002A800600FD00E80004040500FD00EA00040459
S31500002A900500FD00EC0004050500FD00EF0004053F
S31500002AA00500FD00F20004040500FD00F400040426
S31500002AB00500FD00F60005050600FC00FA0004040A
S31500002AC00500FD00FC0004040500FD00FE000504F1
S31500002AD00600FD00010104040500FD0003010405D4
S31500002AE00500FD00060104040500FD0008010305BC
S31500002AF00400FC000A0101050200FC000B010305AD
S31500002B000400FC000D0105030600FD00E8A057D5F2
S31500002B10F500FD3E5F8088888880F4BF2E80806A3D
S31500002B20409580AA805D00C0F08008888800FC631C
S31500002B301F80F8F87F0F80F87E1F808C7E1080FC47
S31500002B403E1F80FC3F1F80F8421080FC7F1F80FCE8
S31500002B507E1F8090B02A22F0F088A8F84E0200FD71
S31500002B606F0F80FC7F1880F47D1F00FC210F80F41E
S31500002B70631F00FC3F0F80FC3F0800FC2F1F808C6A
S31500002B807F1880F9084F8078852F808DB168808402
S31500002B90210F80FD6B5A80FC631880FC631F80FC4C
S31500002BA07F0800FC633F80FC7F2900FC3E1F80F904
S31500002BB00842008C631F808C62A200AD6B5F808A26
S31500002BC088A8808C544200F87F0F80EAC0820820D3
S31500002BD080D5C054F880F1FF8F99F0F88F1F99F0D7
S31500002BE0FF8F6BA4F99F108F9990F055C08AF990CA
S31500002BF0F8FD6310F999F99FF99F80F99F20F888ED
S31500002C00471F27C84200999F99978C6BF096699940
S31500002C109F102E8F2B22F889A80FE0FF00000002DC
S31500002C200000DFDF00FFFF000000000000000000E2
S31500002C30342C0000000005FF0101000000FF00FF2A
S31500002C4003000000A08601003C0000000002000016
S31500002C501700000000000000000000005D0E0000EC
S31500002C6000000000682C00004F0005000000000076
S31500002C701B410000050000000000000000001300DA
S31500002C80B9120000000000008C2C000000000002B9
S31500002C90060001020001FFDF00030000021B021212
S31500002CA00000FFDF0000000000000000ED10000043
S31500002CB000000000B82C00000001000000400020C9
S31500002CC010000000CC2C00000000000004000000F2
S31500002CD00800000004000000090000000080000059
S31500002CE00A000000008000000B0000000400000045
S31500002CF00D000000100300000001000004030000A6
S31500002D0001010000100000000201000000010000A7
S31500002D100801000004000000090100000400000092
S31500002D200A010000040000000C010000040300007A
S31500002D3001020000440400000C0200001000000024
S31500002D400D0200000001000000030000000000006A
S31500002D500610001004010C020C020801000000001D
S31500002D6000440106080000000C400020000000009E
S31500002D7044440020AC44002014450020000000001C
S31500002D80000000000000000000000000000000003D
S31500002D90000000000000000000000000000000002D
S31500002DA0000000000000000000000000000000001D
S31500002DB00000000000000000890400005904000023
S31501010018FFFFFFFFFFFFFFFFFFFFFFFFFFFFFFFFE0
S31101010028FFFFFFFFFFFFFFFFFFFFFFFFD0
S705000002A157
